{
  "contractName": "NCoinCrowdsale",
  "abi": [
    {
      "constant": true,
      "inputs": [],
      "name": "hasClosed",
      "outputs": [
        {
          "name": "",
          "type": "bool"
        }
      ],
      "payable": false,
      "stateMutability": "view",
      "type": "function"
    },
    {
      "constant": true,
      "inputs": [],
      "name": "rate",
      "outputs": [
        {
          "name": "",
          "type": "uint256"
        }
      ],
      "payable": false,
      "stateMutability": "view",
      "type": "function"
    },
    {
      "constant": true,
      "inputs": [],
      "name": "weiRaised",
      "outputs": [
        {
          "name": "",
          "type": "uint256"
        }
      ],
      "payable": false,
      "stateMutability": "view",
      "type": "function"
    },
    {
      "constant": true,
      "inputs": [],
      "name": "closingTime",
      "outputs": [
        {
          "name": "",
          "type": "uint256"
        }
      ],
      "payable": false,
      "stateMutability": "view",
      "type": "function"
    },
    {
      "constant": true,
      "inputs": [],
      "name": "wallet",
      "outputs": [
        {
          "name": "",
          "type": "address"
        }
      ],
      "payable": false,
      "stateMutability": "view",
      "type": "function"
    },
    {
      "constant": true,
      "inputs": [],
      "name": "openingTime",
      "outputs": [
        {
          "name": "",
          "type": "uint256"
        }
      ],
      "payable": false,
      "stateMutability": "view",
      "type": "function"
    },
    {
      "constant": false,
      "inputs": [
        {
          "name": "_beneficiary",
          "type": "address"
        }
      ],
      "name": "buyTokens",
      "outputs": [],
      "payable": true,
      "stateMutability": "payable",
      "type": "function"
    },
    {
      "constant": true,
      "inputs": [],
      "name": "token",
      "outputs": [
        {
          "name": "",
          "type": "address"
        }
      ],
      "payable": false,
      "stateMutability": "view",
      "type": "function"
    },
    {
      "inputs": [
        {
          "name": "_openingTime",
          "type": "uint256"
        },
        {
          "name": "_closingTime",
          "type": "uint256"
        },
        {
          "name": "_token",
          "type": "address"
        },
        {
          "name": "_wallet",
          "type": "address"
        }
      ],
      "payable": false,
      "stateMutability": "nonpayable",
      "type": "constructor"
    },
    {
      "payable": true,
      "stateMutability": "payable",
      "type": "fallback"
    },
    {
      "anonymous": false,
      "inputs": [
        {
          "indexed": true,
          "name": "purchaser",
          "type": "address"
        },
        {
          "indexed": true,
          "name": "beneficiary",
          "type": "address"
        },
        {
          "indexed": false,
          "name": "value",
          "type": "uint256"
        },
        {
          "indexed": false,
          "name": "amount",
          "type": "uint256"
        }
      ],
      "name": "TokenPurchase",
      "type": "event"
    }
  ],
  "bytecode": "0x6060604052341561000f57600080fd5b6040516080806109528339810160405280805190602001909190805190602001909190805190602001909190805190602001909190505083838383600073ffffffffffffffffffffffffffffffffffffffff168273ffffffffffffffffffffffffffffffffffffffff161415151561008657600080fd5b600073ffffffffffffffffffffffffffffffffffffffff168173ffffffffffffffffffffffffffffffffffffffff16141515156100c257600080fd5b816000806101000a81548173ffffffffffffffffffffffffffffffffffffffff021916908373ffffffffffffffffffffffffffffffffffffffff16021790555060008060009054906101000a900473ffffffffffffffffffffffffffffffffffffffff1673ffffffffffffffffffffffffffffffffffffffff16632c4e722e6040518163ffffffff167c0100000000000000000000000000000000000000000000000000000000028152600401602060405180830381600087803b151561018857600080fd5b5af1151561019557600080fd5b505050604051805190501115156101ab57600080fd5b6000809054906101000a900473ffffffffffffffffffffffffffffffffffffffff1673ffffffffffffffffffffffffffffffffffffffff16632c4e722e6040518163ffffffff167c0100000000000000000000000000000000000000000000000000000000028152600401602060405180830381600087803b151561022f57600080fd5b5af1151561023c57600080fd5b5050506040518051905060028190555080600160006101000a81548173ffffffffffffffffffffffffffffffffffffffff021916908373ffffffffffffffffffffffffffffffffffffffff160217905550505042821015151561029e57600080fd5b8181101515156102ad57600080fd5b8160048190555080600581905550505050505050610682806102d06000396000f30060606040526004361061008e576000357c0100000000000000000000000000000000000000000000000000000000900463ffffffff1680631515bc2b146100995780632c4e722e146100c65780634042b66f146100ef5780634b6753bc14610118578063521eb27314610141578063b7a8807c14610196578063ec8ac4d8146101bf578063fc0c546a146101ed575b61009733610242565b005b34156100a457600080fd5b6100ac610333565b604051808215151515815260200191505060405180910390f35b34156100d157600080fd5b6100d961033f565b6040518082815260200191505060405180910390f35b34156100fa57600080fd5b610102610345565b6040518082815260200191505060405180910390f35b341561012357600080fd5b61012b61034b565b6040518082815260200191505060405180910390f35b341561014c57600080fd5b610154610351565b604051808273ffffffffffffffffffffffffffffffffffffffff1673ffffffffffffffffffffffffffffffffffffffff16815260200191505060405180910390f35b34156101a157600080fd5b6101a9610377565b6040518082815260200191505060405180910390f35b6101eb600480803573ffffffffffffffffffffffffffffffffffffffff16906020019091905050610242565b005b34156101f857600080fd5b61020061037d565b604051808273ffffffffffffffffffffffffffffffffffffffff1673ffffffffffffffffffffffffffffffffffffffff16815260200191505060405180910390f35b60008034915061025283836103a2565b61025b826103cf565b9050610272826003546103ed90919063ffffffff16565b60038190555061028383838361040e565b8273ffffffffffffffffffffffffffffffffffffffff16600160009054906101000a900473ffffffffffffffffffffffffffffffffffffffff1673ffffffffffffffffffffffffffffffffffffffff167f623b3804fa71d67900d064613da8f94b9617215ee90799290593e1745087ad188484604051808381526020018281526020019250505060405180910390a361031c838361041e565b610324610422565b61032e8383610486565b505050565b60006005544211905090565b60025481565b60035481565b60055481565b600160009054906101000a900473ffffffffffffffffffffffffffffffffffffffff1681565b60045481565b6000809054906101000a900473ffffffffffffffffffffffffffffffffffffffff1681565b60045442101580156103b657506005544211155b15156103c157600080fd5b6103cb828261048a565b5050565b60006103e6600254836104da90919063ffffffff16565b9050919050565b600080828401905083811015151561040457600080fd5b8091505092915050565b610419838383610518565b505050565b5050565b600160009054906101000a900473ffffffffffffffffffffffffffffffffffffffff1673ffffffffffffffffffffffffffffffffffffffff166108fc349081150290604051600060405180830381858888f19350505050151561048457600080fd5b565b5050565b600073ffffffffffffffffffffffffffffffffffffffff168273ffffffffffffffffffffffffffffffffffffffff16141515156104c657600080fd5b600081141515156104d657600080fd5b5050565b60008060008414156104ef5760009150610511565b828402905082848281151561050057fe5b0414151561050d57600080fd5b8091505b5092915050565b6000809054906101000a900473ffffffffffffffffffffffffffffffffffffffff1673ffffffffffffffffffffffffffffffffffffffff1663f920bd18600160009054906101000a900473ffffffffffffffffffffffffffffffffffffffff168585856040518563ffffffff167c0100000000000000000000000000000000000000000000000000000000028152600401808573ffffffffffffffffffffffffffffffffffffffff1673ffffffffffffffffffffffffffffffffffffffff1681526020018473ffffffffffffffffffffffffffffffffffffffff1673ffffffffffffffffffffffffffffffffffffffff168152602001838152602001828152602001945050505050602060405180830381600087803b151561063957600080fd5b5af1151561064657600080fd5b50505060405180519050505050505600a165627a7a72305820b1d55169fc283e506d6f960882253bf0bb9c5a524235fe0eca38ecbfccc600400029",
  "source": "pragma solidity ^0.4.19;\n\nimport './ToriToken.sol';\n\ncontract Crowdsale {\n\tusing SafeMath for uint256;\n\n\tMintableToken public token;\n\taddress public wallet;\n\tuint256 public rate;\n\tuint256 public weiRaised;\n\n\tevent TokenPurchase(address indexed purchaser, address indexed beneficiary, uint256 value, uint256 amount);\n\n\tfunction Crowdsale(address _token, address _wallet) public {\n\t\trequire(_token != address(0));\n\t\trequire(_wallet != address(0));\n\t\ttoken = MintableToken(_token);\t\t\n\t\trequire(token.rate() > 0);\n\n\t\trate \t= token.rate();\n\t\twallet \t= _wallet;\n\t}\n\n\tfunction () external payable {\n\t\tbuyTokens(msg.sender);\n\t}\n\n\tfunction buyTokens(address _beneficiary) public payable {\n\n\t\tuint256 weiAmount = msg.value;\n\t\t_preValidatePurchase(_beneficiary, weiAmount);\n\n\t\tuint256 tokenAmount = _getTokenAmount(weiAmount);\n\n\t\tweiRaised = weiRaised.add(weiAmount);\n\n\t\t_processPurchase(_beneficiary, weiAmount, tokenAmount);\n\t\t//token.transferFromWallet(wallet, _beneficiary, tokenAmount);\n\t\t//token.transferFromWallet.value(msg.value)(wallet, _beneficiary, tokenAmount);\n\t\t\n\t\temit TokenPurchase(wallet, _beneficiary, weiAmount, tokenAmount);\n\n\t\t_updatePurchasingState(_beneficiary, weiAmount);\n\n\t\t_forwardFunds();\n\t\t_postValidatePurchase(_beneficiary, weiAmount);\n\t}\n\n\tfunction _preValidatePurchase(address _beneficiary, uint256 _weiAmount) internal {\n\t\trequire(_beneficiary != address(0));\n\t\trequire(_weiAmount != 0);\n\t}\n\n\tfunction _postValidatePurchase(address _beneficiary, uint256 _weiAmount) internal {\n\n\t}\n\n\tfunction _deliverTokens(address _beneficiary, uint256 _weiAmount, uint256 _tokenAmount) internal {\n\t\ttoken.transferFromWallet(wallet, _beneficiary, _weiAmount, _tokenAmount);\n\t}\n\n\tfunction _processPurchase(address _beneficiary, uint256 _weiAmount, uint256 _tokenAmount) internal {\n\t\t_deliverTokens(_beneficiary, _weiAmount, _tokenAmount);\n\t}\n\n\tfunction _updatePurchasingState(address _beneficiary, uint256 _weiAmount) internal {\n\n\t}\n\n\tfunction _getTokenAmount(uint256 _weiAmount) internal view returns (uint256) {\n\t\treturn _weiAmount.mul(rate);\n\t}\n\n\tfunction _forwardFunds() internal {\n\t\twallet.transfer(msg.value);\n\t}\n}\n\ncontract MintedCrowdsale is Crowdsale {\n\n\tfunction _deliverTokens(address _beneficiary, uint256 _tokenAmount) internal {\n\t\trequire(MintableToken(token).mint(_beneficiary, _tokenAmount));\n\t}\n}\n\ncontract TimedCrowdsale is Crowdsale {\n\tusing SafeMath for uint256;\n\n\tuint256 public openingTime;\n\tuint256 public closingTime;\n\n\tmodifier onlyWhileOpen {\n\t\trequire(now >= openingTime && now <= closingTime);\n\t\t_;\n\t}\n\n\tfunction TimedCrowdsale(uint256 _openingTime, uint256 _closingTime) public {\n\t\trequire(_openingTime >= now);\n\t\trequire(_closingTime >= _openingTime);\n\n\t\topeningTime = _openingTime;\n\t\tclosingTime = _closingTime;\n\t}\n\n\tfunction hasClosed() public view returns (bool) {\n\t\treturn now > closingTime;\n\t}\n\n\tfunction _preValidatePurchase(address _beneficiary, uint256 _weiAmount) internal onlyWhileOpen {\n\t\tsuper._preValidatePurchase(_beneficiary, _weiAmount);\n\t}\n}\n\ncontract NCoinCrowdsale is TimedCrowdsale, MintedCrowdsale {\n\tfunction NCoinCrowdsale (uint256 _openingTime, uint256 _closingTime, MintableToken _token, address _wallet) public Crowdsale(_token, _wallet) TimedCrowdsale(_openingTime, _closingTime) {\n\n\t}\n}\n",
  "sourcePath": "/Users/nicejames/Projects/du/token/contracts/ToriTokenSale.sol",
  "compiler": {
    "name": "solc",
    "version": "0.4.21+commit.dfe3193c.Emscripten.clang"
  },
  "schemaVersion": "2.0.0",
  "updatedAt": "2018-04-13T07:30:08.925Z"
}