{
  "contractName": "Pausable",
  "abi": [
    {
      "constant": true,
      "inputs": [],
      "name": "owner",
      "outputs": [
        {
          "name": "",
          "type": "address"
        }
      ],
      "payable": false,
      "stateMutability": "view",
      "type": "function"
    },
    {
      "constant": false,
      "inputs": [
        {
          "name": "newOwner",
          "type": "address"
        }
      ],
      "name": "transferOwnership",
      "outputs": [],
      "payable": false,
      "stateMutability": "nonpayable",
      "type": "function"
    },
    {
      "anonymous": false,
      "inputs": [],
      "name": "Pause",
      "type": "event"
    },
    {
      "anonymous": false,
      "inputs": [],
      "name": "Unpause",
      "type": "event"
    },
    {
      "anonymous": false,
      "inputs": [
        {
          "indexed": true,
          "name": "previousOwner",
          "type": "address"
        },
        {
          "indexed": true,
          "name": "newOwner",
          "type": "address"
        }
      ],
      "name": "OwnershipTransferred",
      "type": "event"
    },
    {
      "constant": false,
      "inputs": [],
      "name": "pause",
      "outputs": [],
      "payable": false,
      "stateMutability": "nonpayable",
      "type": "function"
    },
    {
      "constant": false,
      "inputs": [],
      "name": "unpause",
      "outputs": [],
      "payable": false,
      "stateMutability": "nonpayable",
      "type": "function"
    }
  ],
  "bytecode": "0x606060405260008060146101000a81548160ff021916908315150217905550336000806101000a81548173ffffffffffffffffffffffffffffffffffffffff021916908373ffffffffffffffffffffffffffffffffffffffff1602179055506104438061006d6000396000f300606060405260043610610062576000357c0100000000000000000000000000000000000000000000000000000000900463ffffffff1680633f4ba83a146100675780638456cb591461007c5780638da5cb5b14610091578063f2fde38b146100e6575b600080fd5b341561007257600080fd5b61007a61011f565b005b341561008757600080fd5b61008f6101dd565b005b341561009c57600080fd5b6100a461029d565b604051808273ffffffffffffffffffffffffffffffffffffffff1673ffffffffffffffffffffffffffffffffffffffff16815260200191505060405180910390f35b34156100f157600080fd5b61011d600480803573ffffffffffffffffffffffffffffffffffffffff169060200190919050506102c2565b005b6000809054906101000a900473ffffffffffffffffffffffffffffffffffffffff1673ffffffffffffffffffffffffffffffffffffffff163373ffffffffffffffffffffffffffffffffffffffff1614151561017a57600080fd5b600060149054906101000a900460ff16151561019557600080fd5b60008060146101000a81548160ff0219169083151502179055507f7805862f689e2f13df9f062ff482ad3ad112aca9e0847911ed832e158c525b3360405160405180910390a1565b6000809054906101000a900473ffffffffffffffffffffffffffffffffffffffff1673ffffffffffffffffffffffffffffffffffffffff163373ffffffffffffffffffffffffffffffffffffffff1614151561023857600080fd5b600060149054906101000a900460ff1615151561025457600080fd5b6001600060146101000a81548160ff0219169083151502179055507f6985a02210a168e66602d3235cb6db0e70f92b3ba4d376a33c0f3d9434bff62560405160405180910390a1565b6000809054906101000a900473ffffffffffffffffffffffffffffffffffffffff1681565b6000809054906101000a900473ffffffffffffffffffffffffffffffffffffffff1673ffffffffffffffffffffffffffffffffffffffff163373ffffffffffffffffffffffffffffffffffffffff1614151561031d57600080fd5b600073ffffffffffffffffffffffffffffffffffffffff168173ffffffffffffffffffffffffffffffffffffffff161415151561035957600080fd5b8073ffffffffffffffffffffffffffffffffffffffff166000809054906101000a900473ffffffffffffffffffffffffffffffffffffffff1673ffffffffffffffffffffffffffffffffffffffff167f8be0079c531659141344cd1fd0a4f28419497f9722a3daafe3b4186f6b6457e060405160405180910390a3806000806101000a81548173ffffffffffffffffffffffffffffffffffffffff021916908373ffffffffffffffffffffffffffffffffffffffff160217905550505600a165627a7a72305820d15162e55b2d2e8f74a3d626dbf7e93abfc08d4c3d26b7207cb1baca3c0c16810029",
  "source": "pragma solidity ^0.4.19;\n\nlibrary SafeMath {\n\tfunction mul(uint256 a, uint256 b) internal pure returns (uint256) {\n\t\tif (a == 0) {\n\t\t\treturn 0;\n\t\t}\n\n\t\tuint256 c = a * b;\n\t\trequire(c / a == b);\n\t\treturn c;\n\t}\n\n\tfunction div(uint256 a, uint256 b) internal pure returns (uint256) {\n\t\tuint256 c = a / b;\n\t\treturn c;\n\t}\n\n\tfunction sub(uint256 a, uint256 b) internal pure returns (uint256) {\n\t\trequire(b <= a);\n\t\treturn a - b;\n\t}\n\n\tfunction add(uint256 a, uint256 b) internal pure returns (uint256) {\n\t\tuint256 c = a + b;\n\t\trequire(c >= a);\n\t\treturn c;\n\t}\n}\n\ncontract ERC20Basic {\n    function totalSupply() public view returns (uint256);\n    function balanceOf(address who) public view returns (uint256);\n    function transfer(address to, uint256 value) public returns (bool);\n    event Transfer(address indexed from, address indexed to, uint256 value);\n}\n\ncontract ERC20 is ERC20Basic {\n    function allowance(address owner, address spender) public view returns (uint256);\n    function transferFrom(address from, address to, uint256 value) public returns (bool);\n    function approve(address spender, uint256 value) public returns (bool);\n    event Approval(address indexed owner, address indexed spender, uint256 value);\n}\n\ncontract BasicToken is ERC20Basic {\n\tusing SafeMath for uint256;\n\n    string public name;\n    string public symbol;\n    uint256 public decimals;\n    uint256 public rate;\n\tmapping(address => uint256) balances;\n\tuint256 totalSupply_;\n\n\tfunction totalSupply() public view returns (uint256) {\n\t\treturn totalSupply_;\n\t}\n\n\tfunction transfer(address _to, uint256 _value) public returns (bool) {\n\t\trequire(_to != address(0));\n\t\trequire(_value <= balances[msg.sender]);\n\n\t\tbalances[msg.sender]    = balances[msg.sender].sub(_value);\n\t\tbalances[_to]           = balances[_to].add(_value);\n\t\temit Transfer(msg.sender, _to, _value);\n\t\treturn true;\n\t}\n\n\tfunction balanceOf(address _owner) public view returns (uint256 balance) {\n\t\treturn balances[_owner];\n\t}\n}\n\ncontract StandardToken is ERC20, BasicToken {\n    using SafeMath for uint256;\n    \n\tmapping (address => mapping (address => uint256)) internal allowed;\n\t\n\tfunction transferFrom(address _from, address _to, uint256 _value) public returns (bool) {\n\t\trequire(_to != address(0));\n\t\trequire(_value <= balances[_from]);\n\t\trequire(_value <= allowed[_from][msg.sender]);\n\n\t\tbalances[_from]               = balances[_from].sub(_value);\n\t\tbalances[_to]                 = balances[_to].add(_value);\n\t\tallowed[_from][msg.sender]    = allowed[_from][msg.sender].sub(_value);\n\t\temit Transfer(_from, _to, _value);\n\t\treturn true;\n\t}\n\t\n\tfunction approve(address _spender, uint256 _value) public returns (bool) {\n\t\tallowed[msg.sender][_spender] = _value;\n\t\temit Approval(msg.sender, _spender, _value);\n\t\treturn true;\n\t}\n\n\tfunction allowance(address _owner, address _spender) public view returns (uint256) {\n\t\treturn allowed[_owner][_spender];\n\t}\n\n\tfunction increaseApproval(address _spender, uint _addedValue) public returns (bool) {\n\t\tallowed[msg.sender][_spender] = allowed[msg.sender][_spender].add(_addedValue);\n\t\temit Approval(msg.sender, _spender, allowed[msg.sender][_spender]);\n\t\treturn true;\n\t}\n\n\tfunction decreaseApproval(address _spender, uint _subtractedValue) public returns (bool) {\n\t\tuint oldValue = allowed[msg.sender][_spender];\n\n\t\tif (_subtractedValue > oldValue) {\n\t\t\tallowed[msg.sender][_spender] = 0;\n\t\t}\n\t\telse {\n\t\t\tallowed[msg.sender][_spender] = oldValue.sub(_subtractedValue);\n\t\t}\n\n\t\temit Approval(msg.sender, _spender, allowed[msg.sender][_spender]);\n\t\treturn true;\n\t}\n}\n\ncontract UpgradeAgent {\n\tuint public originalSupply;\n  \n\tfunction isUpgradeAgent() public pure returns (bool) {\n\t\treturn true;\n\t}\n\n\tfunction upgradeFrom(address _from, uint256 _value) public;\n}\n\ncontract UpgradeableToken is StandardToken {\n\tusing SafeMath for uint256;\n\n\taddress public upgradeMaster;\n\tUpgradeAgent public upgradeAgent;\n\tuint256 public totalUpgraded;\n\n\tenum UpgradeState {\n\t\tUnknown, \n\t\tNotAllowed, \n\t\tWaitingForAgent, \n\t\tReadyToUpgrade, \n\t\tUpgrading\n\t}\n\n\tevent Upgrade(address indexed _from, address indexed _to, uint256 _value);\n\tevent UpgradeAgentSet(address agent);\n\n\tfunction UpgradeableToken(address _upgradeMaster) public {\n\t\tupgradeMaster = _upgradeMaster;\n\t}\n\n\tfunction upgrade(uint256 value) public {\n\t\tUpgradeState state = getUpgradeState();\n\n\t\tif(!(state == UpgradeState.ReadyToUpgrade || state == UpgradeState.Upgrading)) {\n\t\t\trevert();\n\t\t}\n\n\t\tif (value == 0) \n\t\t\trevert();\n\n\t\tbalances[msg.sender]  = balances[msg.sender].sub(value);\n\t\ttotalSupply_          = totalSupply_.sub(value);\n\t\ttotalUpgraded         = totalUpgraded.add(value);\n\n\t\tupgradeAgent.upgradeFrom(msg.sender, value);\n\t\temit Upgrade(msg.sender, upgradeAgent, value);\n\t}\n\n\tfunction setUpgradeAgent(address agent) external {\n\t\tif(!canUpgrade()) {\n\t\t\trevert();\n\t\t}\n\n\t\tif (agent == address(0)) \n\t\t\trevert();\n      \n\t\tif (msg.sender != upgradeMaster) \n\t\t\trevert();\n      \n\t\tif (getUpgradeState() == UpgradeState.Upgrading) \n\t\t\trevert();\n\n\t\tupgradeAgent = UpgradeAgent(agent);\n\n\t\tif(!upgradeAgent.isUpgradeAgent()) \n\t\t\trevert();\n      \n\t\tif (upgradeAgent.originalSupply() != totalSupply_) \n\t\t\trevert();\n\n\t\temit UpgradeAgentSet(upgradeAgent);\n\t}\n\n\tfunction getUpgradeState() public view returns(UpgradeState) {\n\t\tif(!canUpgrade()) \n\t\t\treturn UpgradeState.NotAllowed;\n\t\telse if(address(upgradeAgent) == address(0)) \n\t\t\treturn UpgradeState.WaitingForAgent;\n\t\telse if(totalUpgraded == 0) \n\t\t\treturn UpgradeState.ReadyToUpgrade;\n    \n\t\treturn UpgradeState.Upgrading;\n\t}\n\n\tfunction setUpgradeMaster(address master) public {\n\t\tif (master == address(0)) \n\t\t\trevert();\n\t\tif (msg.sender != upgradeMaster) \n\t\t\trevert();\n\n\t\tupgradeMaster = master;\n\t}\n\n\tfunction canUpgrade() public pure returns (bool) {\n\t\treturn true;\n\t}\n}\n\ncontract Ownable {\n    address public owner;\n\n    event OwnershipTransferred(address indexed previousOwner, address indexed newOwner);\n\n    function Ownable() public {\n        owner = msg.sender;\n    }\n\n    modifier onlyOwner() {\n        require(msg.sender == owner);\n        _;\n    }\n\n    function transferOwnership(address newOwner) public onlyOwner {\n        require(newOwner != address(0));\n        emit OwnershipTransferred(owner, newOwner);\n        owner = newOwner;\n    }\n}\n\ncontract Pausable is Ownable {\n\tbool private paused_ = false;\n\n\tevent Pause();\n\tevent Unpause();\n\n\tmodifier whenNotPaused() {\n\t\trequire(!paused_);\n\t\t_;\n\t}\n\n\tmodifier whenPaused() {\n\t\trequire(paused_);\n\t\t_;\n\t}\n\n\tfunction pause() onlyOwner whenNotPaused public {\n\t\tpaused_ = true;\n\t\temit Pause();\n\t}\n\n\tfunction unpause() onlyOwner whenPaused public {\n\t\tpaused_ = false;\n\t\temit Unpause();\n\t}\n}\n\ncontract PausableToken is StandardToken, Pausable {\n\tfunction transfer(address _to, uint256 _value) public whenNotPaused returns (bool) {\n\t\treturn super.transfer(_to, _value);\n\t}\n\n\tfunction transferFrom(address _from, address _to, uint256 _value) public whenNotPaused returns (bool) {\n\t\treturn super.transferFrom(_from, _to, _value);\n\t}\n\n\tfunction approve(address _spender, uint256 _value) public whenNotPaused returns (bool) {\n\t\treturn super.approve(_spender, _value);\n\t}\n\n\tfunction increaseApproval(address _spender, uint _addedValue) public whenNotPaused returns (bool success) {\n\t\treturn super.increaseApproval(_spender, _addedValue);\n\t}\n\n\tfunction decreaseApproval(address _spender, uint _subtractedValue) public whenNotPaused returns (bool success) {\n\t\treturn super.decreaseApproval(_spender, _subtractedValue);\n\t}\n}\n\ncontract MintableToken is PausableToken {\n    bool public mintingFinished = false;\n\n    event Mint(address indexed to, uint256 amount);\n    event MintFinished();\n\n    modifier canMint() {\n        require(!mintingFinished);\n        _;\n    }\n\n    function mint(address _to, uint256 _amount) onlyOwner canMint public returns (bool) {\n        totalSupply_  = totalSupply_.add(_amount);\n        balances[_to] = balances[_to].add(_amount);\n        emit Mint(_to, _amount);\n        emit Transfer(address(0), _to, _amount);\n        return true;\n    }\n    \n    function transferFromWallet(address _fromWallet, address _to, uint256 _weiValue, uint256 _tokenValue) external returns (bool) {\n\t    require(_fromWallet != address(0));\n\t\trequire(_to != address(0));\n\t\trequire(_weiValue > 0);\n\t\trequire(_tokenValue > 0);\n\t\trequire(_tokenValue <= balances[_fromWallet]);\n\t\trequire(_tokenValue == _weiValue.mul(rate));\n\n\t\tbalances[_fromWallet]         = balances[_fromWallet].sub(_tokenValue);\n\t\tbalances[_to]                 = balances[_to].add(_tokenValue);\n\t\temit Transfer(_fromWallet, _to, _tokenValue);\n\t\treturn true;\n\t}\n\t\n// \tfunction transferFromWallet(address _fromWallet, address _to, uint256 _tokenValue) external payable returns (bool) {\n// \t    require(_fromWallet != address(0));\n// \t\trequire(_to != address(0));\n// \t\trequire(msg.value > 0);\n// \t\trequire(_tokenValue > 0);\n// \t\trequire(_tokenValue <= balances[_fromWallet]);\n// \t\trequire(_tokenValue == msg.value.mul(rate));\n\n// \t\tbalances[_fromWallet]         = balances[_fromWallet].sub(_tokenValue);\n// \t\tbalances[_to]                 = balances[_to].add(_tokenValue);\n// \t\temit Transfer(_fromWallet, _to, _tokenValue);\n// \t\treturn true;\n// \t}\n\n    function finishMinting() onlyOwner canMint public returns (bool) {\n        mintingFinished = true;\n        emit MintFinished();\n        return true;\n    }\n}\n\ncontract ToriToken is MintableToken {\n\n    function ToriToken() public {\n        name        = \"Tori Token\";\n        symbol      = \"TOR\";\n        decimals    = 18;\n        rate        = 1000;\n    }\n}\n",
  "sourcePath": "/Users/nicejames/Projects/du/token/contracts/ToriToken.sol",
  "compiler": {
    "name": "solc",
    "version": "0.4.21+commit.dfe3193c.Emscripten.clang"
  },
  "schemaVersion": "2.0.0",
  "updatedAt": "2018-04-13T07:30:08.782Z"
}